{
  "_format": "hh-sol-artifact-1",
  "contractName": "MultiSend",
  "sourceName": "contracts/MultiSend.sol",
  "abi": [
    {
      "inputs": [
        {
          "internalType": "address",
          "name": "initialOwner",
          "type": "address"
        },
        {
          "internalType": "uint256",
          "name": "initialFee",
          "type": "uint256"
        }
      ],
      "stateMutability": "nonpayable",
      "type": "constructor"
    },
    {
      "inputs": [
        {
          "internalType": "address",
          "name": "owner",
          "type": "address"
        }
      ],
      "name": "OwnableInvalidOwner",
      "type": "error"
    },
    {
      "inputs": [
        {
          "internalType": "address",
          "name": "account",
          "type": "address"
        }
      ],
      "name": "OwnableUnauthorizedAccount",
      "type": "error"
    },
    {
      "anonymous": false,
      "inputs": [
        {
          "indexed": true,
          "internalType": "address",
          "name": "previousOwner",
          "type": "address"
        },
        {
          "indexed": true,
          "internalType": "address",
          "name": "newOwner",
          "type": "address"
        }
      ],
      "name": "OwnershipTransferred",
      "type": "event"
    },
    {
      "inputs": [],
      "name": "fee",
      "outputs": [
        {
          "internalType": "uint256",
          "name": "",
          "type": "uint256"
        }
      ],
      "stateMutability": "view",
      "type": "function"
    },
    {
      "inputs": [
        {
          "internalType": "address payable[]",
          "name": "addresses",
          "type": "address[]"
        },
        {
          "internalType": "uint256[]",
          "name": "amounts",
          "type": "uint256[]"
        }
      ],
      "name": "multiSendRose",
      "outputs": [],
      "stateMutability": "payable",
      "type": "function"
    },
    {
      "inputs": [
        {
          "internalType": "contract IERC20",
          "name": "tokenAddr",
          "type": "address"
        },
        {
          "internalType": "address[]",
          "name": "addresses",
          "type": "address[]"
        },
        {
          "internalType": "uint256[]",
          "name": "amounts",
          "type": "uint256[]"
        }
      ],
      "name": "multiSendToken",
      "outputs": [],
      "stateMutability": "payable",
      "type": "function"
    },
    {
      "inputs": [],
      "name": "owner",
      "outputs": [
        {
          "internalType": "address",
          "name": "",
          "type": "address"
        }
      ],
      "stateMutability": "view",
      "type": "function"
    },
    {
      "inputs": [],
      "name": "renounceOwnership",
      "outputs": [],
      "stateMutability": "nonpayable",
      "type": "function"
    },
    {
      "inputs": [
        {
          "internalType": "uint256",
          "name": "_fee",
          "type": "uint256"
        }
      ],
      "name": "setFee",
      "outputs": [],
      "stateMutability": "nonpayable",
      "type": "function"
    },
    {
      "inputs": [
        {
          "internalType": "address",
          "name": "newOwner",
          "type": "address"
        }
      ],
      "name": "transferOwnership",
      "outputs": [],
      "stateMutability": "nonpayable",
      "type": "function"
    },
    {
      "inputs": [],
      "name": "withdraw",
      "outputs": [],
      "stateMutability": "nonpayable",
      "type": "function"
    }
  ],
  "bytecode": "0x60806040523480156200001157600080fd5b506040516200158638038062001586833981810160405281019062000037919062000237565b81600073ffffffffffffffffffffffffffffffffffffffff168173ffffffffffffffffffffffffffffffffffffffff1603620000ad5760006040517f1e4fbdf7000000000000000000000000000000000000000000000000000000008152600401620000a491906200028f565b60405180910390fd5b620000be81620000ce60201b60201c565b50806001819055505050620002ac565b60008060009054906101000a900473ffffffffffffffffffffffffffffffffffffffff169050816000806101000a81548173ffffffffffffffffffffffffffffffffffffffff021916908373ffffffffffffffffffffffffffffffffffffffff1602179055508173ffffffffffffffffffffffffffffffffffffffff168173ffffffffffffffffffffffffffffffffffffffff167f8be0079c531659141344cd1fd0a4f28419497f9722a3daafe3b4186f6b6457e060405160405180910390a35050565b600080fd5b600073ffffffffffffffffffffffffffffffffffffffff82169050919050565b6000620001c48262000197565b9050919050565b620001d681620001b7565b8114620001e257600080fd5b50565b600081519050620001f681620001cb565b92915050565b6000819050919050565b6200021181620001fc565b81146200021d57600080fd5b50565b600081519050620002318162000206565b92915050565b6000806040838503121562000251576200025062000192565b5b60006200026185828601620001e5565b9250506020620002748582860162000220565b9150509250929050565b6200028981620001b7565b82525050565b6000602082019050620002a660008301846200027e565b92915050565b6112ca80620002bc6000396000f3fe60806040526004361061007b5760003560e01c80638da5cb5b1161004e5780638da5cb5b146100f35780638e8997181461011e578063ddca3f431461013a578063f2fde38b146101655761007b565b80633ccfd60b14610080578063443a2a061461009757806369fe0e2d146100b3578063715018a6146100dc575b600080fd5b34801561008c57600080fd5b5061009561018e565b005b6100b160048036038101906100ac9190610ad7565b610288565b005b3480156100bf57600080fd5b506100da60048036038101906100d59190610b8e565b6104f3565b005b3480156100e857600080fd5b506100f1610505565b005b3480156100ff57600080fd5b50610108610519565b6040516101159190610bfc565b60405180910390f35b61013860048036038101906101339190610cab565b610542565b005b34801561014657600080fd5b5061014f610833565b60405161015c9190610d4f565b60405180910390f35b34801561017157600080fd5b5061018c60048036038101906101879190610d96565b610839565b005b6101966108bf565b600047116101d9576040517f08c379a00000000000000000000000000000000000000000000000000000000081526004016101d090610e20565b60405180910390fd5b60003373ffffffffffffffffffffffffffffffffffffffff16476040516101ff90610e71565b60006040518083038185875af1925050503d806000811461023c576040519150601f19603f3d011682016040523d82523d6000602084013e610241565b606091505b5050905080610285576040517f08c379a000000000000000000000000000000000000000000000000000000000815260040161027c90610ed2565b60405180910390fd5b50565b6000805b838390508110156102cb578383828181106102aa576102a9610ef2565b5b90506020020135826102bc9190610f50565b9150808060010191505061028c565b506000600154826102dc9190610f50565b905080341015610321576040517f08c379a000000000000000000000000000000000000000000000000000000000815260040161031890610fd0565b60405180910390fd5b60005b8686905081101561042957600087878381811061034457610343610ef2565b5b9050602002016020810190610359919061102e565b73ffffffffffffffffffffffffffffffffffffffff1686868481811061038257610381610ef2565b5b9050602002013560405161039590610e71565b60006040518083038185875af1925050503d80600081146103d2576040519150601f19603f3d011682016040523d82523d6000602084013e6103d7565b606091505b505090508061041b576040517f08c379a000000000000000000000000000000000000000000000000000000000815260040161041290610ed2565b60405180910390fd5b508080600101915050610324565b50803411156104eb5760003373ffffffffffffffffffffffffffffffffffffffff168234610457919061105b565b60405161046390610e71565b60006040518083038185875af1925050503d80600081146104a0576040519150601f19603f3d011682016040523d82523d6000602084013e6104a5565b606091505b50509050806104e9576040517f08c379a00000000000000000000000000000000000000000000000000000000081526004016104e090610ed2565b60405180910390fd5b505b505050505050565b6104fb6108bf565b8060018190555050565b61050d6108bf565b6105176000610946565b565b60008060009054906101000a900473ffffffffffffffffffffffffffffffffffffffff16905090565b6000805b838390508110156105855783838281811061056457610563610ef2565b5b90506020020135826105769190610f50565b91508080600101915050610546565b506001543410156105cb576040517f08c379a00000000000000000000000000000000000000000000000000000000081526004016105c2906110db565b60405180910390fd5b8573ffffffffffffffffffffffffffffffffffffffff1663dd62ed3e33306040518363ffffffff1660e01b81526004016106069291906110fb565b602060405180830381865afa158015610623573d6000803e3d6000fd5b505050506040513d601f19601f820116820180604052508101906106479190611139565b811115610689576040517f08c379a0000000000000000000000000000000000000000000000000000000008152600401610680906111d8565b60405180910390fd5b60005b85859050811015610765578673ffffffffffffffffffffffffffffffffffffffff166323b872dd338888858181106106c7576106c6610ef2565b5b90506020020160208101906106dc9190610d96565b8787868181106106ef576106ee610ef2565b5b905060200201356040518463ffffffff1660e01b8152600401610714939291906111f8565b6020604051808303816000875af1158015610733573d6000803e3d6000fd5b505050506040513d601f19601f820116820180604052508101906107579190611267565b50808060010191505061068c565b5060015434111561082b5760003373ffffffffffffffffffffffffffffffffffffffff1660015434610797919061105b565b6040516107a390610e71565b60006040518083038185875af1925050503d80600081146107e0576040519150601f19603f3d011682016040523d82523d6000602084013e6107e5565b606091505b5050905080610829576040517f08c379a000000000000000000000000000000000000000000000000000000000815260040161082090610ed2565b60405180910390fd5b505b505050505050565b60015481565b6108416108bf565b600073ffffffffffffffffffffffffffffffffffffffff168173ffffffffffffffffffffffffffffffffffffffff16036108b35760006040517f1e4fbdf70000000000000000000000000000000000000000000000000000000081526004016108aa9190610bfc565b60405180910390fd5b6108bc81610946565b50565b6108c7610a0a565b73ffffffffffffffffffffffffffffffffffffffff166108e5610519565b73ffffffffffffffffffffffffffffffffffffffff161461094457610908610a0a565b6040517f118cdaa700000000000000000000000000000000000000000000000000000000815260040161093b9190610bfc565b60405180910390fd5b565b60008060009054906101000a900473ffffffffffffffffffffffffffffffffffffffff169050816000806101000a81548173ffffffffffffffffffffffffffffffffffffffff021916908373ffffffffffffffffffffffffffffffffffffffff1602179055508173ffffffffffffffffffffffffffffffffffffffff168173ffffffffffffffffffffffffffffffffffffffff167f8be0079c531659141344cd1fd0a4f28419497f9722a3daafe3b4186f6b6457e060405160405180910390a35050565b600033905090565b600080fd5b600080fd5b600080fd5b600080fd5b600080fd5b60008083601f840112610a4157610a40610a1c565b5b8235905067ffffffffffffffff811115610a5e57610a5d610a21565b5b602083019150836020820283011115610a7a57610a79610a26565b5b9250929050565b60008083601f840112610a9757610a96610a1c565b5b8235905067ffffffffffffffff811115610ab457610ab3610a21565b5b602083019150836020820283011115610ad057610acf610a26565b5b9250929050565b60008060008060408587031215610af157610af0610a12565b5b600085013567ffffffffffffffff811115610b0f57610b0e610a17565b5b610b1b87828801610a2b565b9450945050602085013567ffffffffffffffff811115610b3e57610b3d610a17565b5b610b4a87828801610a81565b925092505092959194509250565b6000819050919050565b610b6b81610b58565b8114610b7657600080fd5b50565b600081359050610b8881610b62565b92915050565b600060208284031215610ba457610ba3610a12565b5b6000610bb284828501610b79565b91505092915050565b600073ffffffffffffffffffffffffffffffffffffffff82169050919050565b6000610be682610bbb565b9050919050565b610bf681610bdb565b82525050565b6000602082019050610c116000830184610bed565b92915050565b6000610c2282610bdb565b9050919050565b610c3281610c17565b8114610c3d57600080fd5b50565b600081359050610c4f81610c29565b92915050565b60008083601f840112610c6b57610c6a610a1c565b5b8235905067ffffffffffffffff811115610c8857610c87610a21565b5b602083019150836020820283011115610ca457610ca3610a26565b5b9250929050565b600080600080600060608688031215610cc757610cc6610a12565b5b6000610cd588828901610c40565b955050602086013567ffffffffffffffff811115610cf657610cf5610a17565b5b610d0288828901610c55565b9450945050604086013567ffffffffffffffff811115610d2557610d24610a17565b5b610d3188828901610a81565b92509250509295509295909350565b610d4981610b58565b82525050565b6000602082019050610d646000830184610d40565b92915050565b610d7381610bdb565b8114610d7e57600080fd5b50565b600081359050610d9081610d6a565b92915050565b600060208284031215610dac57610dab610a12565b5b6000610dba84828501610d81565b91505092915050565b600082825260208201905092915050565b7f4e6f2066756e647320746f207769746864726177000000000000000000000000600082015250565b6000610e0a601483610dc3565b9150610e1582610dd4565b602082019050919050565b60006020820190508181036000830152610e3981610dfd565b9050919050565b600081905092915050565b50565b6000610e5b600083610e40565b9150610e6682610e4b565b600082019050919050565b6000610e7c82610e4e565b9150819050919050565b7f5472616e73666572206661696c65642e00000000000000000000000000000000600082015250565b6000610ebc601083610dc3565b9150610ec782610e86565b602082019050919050565b60006020820190508181036000830152610eeb81610eaf565b9050919050565b7f4e487b7100000000000000000000000000000000000000000000000000000000600052603260045260246000fd5b7f4e487b7100000000000000000000000000000000000000000000000000000000600052601160045260246000fd5b6000610f5b82610b58565b9150610f6683610b58565b9250828201905080821115610f7e57610f7d610f21565b5b92915050565b7f4e6f7420656e6f75676820526f73650000000000000000000000000000000000600082015250565b6000610fba600f83610dc3565b9150610fc582610f84565b602082019050919050565b60006020820190508181036000830152610fe981610fad565b9050919050565b6000610ffb82610bbb565b9050919050565b61100b81610ff0565b811461101657600080fd5b50565b60008135905061102881611002565b92915050565b60006020828403121561104457611043610a12565b5b600061105284828501611019565b91505092915050565b600061106682610b58565b915061107183610b58565b925082820390508181111561108957611088610f21565b5b92915050565b7f4e6f7420656e6f75676820526f736520746f2070617920666565000000000000600082015250565b60006110c5601a83610dc3565b91506110d08261108f565b602082019050919050565b600060208201905081810360008301526110f4816110b8565b9050919050565b60006040820190506111106000830185610bed565b61111d6020830184610bed565b9392505050565b60008151905061113381610b62565b92915050565b60006020828403121561114f5761114e610a12565b5b600061115d84828501611124565b91505092915050565b7f496e73756666696369656e7420617070726f766564207370656e6420616d6f7560008201527f6e74000000000000000000000000000000000000000000000000000000000000602082015250565b60006111c2602283610dc3565b91506111cd82611166565b604082019050919050565b600060208201905081810360008301526111f1816111b5565b9050919050565b600060608201905061120d6000830186610bed565b61121a6020830185610bed565b6112276040830184610d40565b949350505050565b60008115159050919050565b6112448161122f565b811461124f57600080fd5b50565b6000815190506112618161123b565b92915050565b60006020828403121561127d5761127c610a12565b5b600061128b84828501611252565b9150509291505056fea2646970667358221220df92efcdaefefe765453979e9b96ebb7950ae062646ed0094d833e362b0520e664736f6c63430008160033",
  "linkReferences": {},
  "deployedLinkReferences": {}
}