{
  "_format": "hh-sol-artifact-1",
  "contractName": "MultiSend",
  "sourceName": "contracts/MultiSend.sol",
  "abi": [
    {
      "inputs": [
        {
          "internalType": "address",
          "name": "initialOwner",
          "type": "address"
        }
      ],
      "stateMutability": "nonpayable",
      "type": "constructor"
    },
    {
      "inputs": [
        {
          "internalType": "address",
          "name": "owner",
          "type": "address"
        }
      ],
      "name": "OwnableInvalidOwner",
      "type": "error"
    },
    {
      "inputs": [
        {
          "internalType": "address",
          "name": "account",
          "type": "address"
        }
      ],
      "name": "OwnableUnauthorizedAccount",
      "type": "error"
    },
    {
      "anonymous": false,
      "inputs": [
        {
          "indexed": true,
          "internalType": "address",
          "name": "previousOwner",
          "type": "address"
        },
        {
          "indexed": true,
          "internalType": "address",
          "name": "newOwner",
          "type": "address"
        }
      ],
      "name": "OwnershipTransferred",
      "type": "event"
    },
    {
      "inputs": [
        {
          "internalType": "address payable[]",
          "name": "addresses",
          "type": "address[]"
        },
        {
          "internalType": "uint256[]",
          "name": "amounts",
          "type": "uint256[]"
        }
      ],
      "name": "multiSendRose",
      "outputs": [],
      "stateMutability": "payable",
      "type": "function"
    },
    {
      "inputs": [
        {
          "internalType": "contract IERC20",
          "name": "tokenAddr",
          "type": "address"
        },
        {
          "internalType": "address[]",
          "name": "addresses",
          "type": "address[]"
        },
        {
          "internalType": "uint256[]",
          "name": "amounts",
          "type": "uint256[]"
        }
      ],
      "name": "multiSendToken",
      "outputs": [],
      "stateMutability": "nonpayable",
      "type": "function"
    },
    {
      "inputs": [],
      "name": "owner",
      "outputs": [
        {
          "internalType": "address",
          "name": "",
          "type": "address"
        }
      ],
      "stateMutability": "view",
      "type": "function"
    },
    {
      "inputs": [],
      "name": "renounceOwnership",
      "outputs": [],
      "stateMutability": "nonpayable",
      "type": "function"
    },
    {
      "inputs": [
        {
          "internalType": "address",
          "name": "newOwner",
          "type": "address"
        }
      ],
      "name": "transferOwnership",
      "outputs": [],
      "stateMutability": "nonpayable",
      "type": "function"
    }
  ],
  "bytecode": "0x60806040523480156200001157600080fd5b50604051620011a7380380620011a78339818101604052810190620000379190620001f4565b80600073ffffffffffffffffffffffffffffffffffffffff168173ffffffffffffffffffffffffffffffffffffffff1603620000ad5760006040517f1e4fbdf7000000000000000000000000000000000000000000000000000000008152600401620000a4919062000237565b60405180910390fd5b620000be81620000c660201b60201c565b505062000254565b60008060009054906101000a900473ffffffffffffffffffffffffffffffffffffffff169050816000806101000a81548173ffffffffffffffffffffffffffffffffffffffff021916908373ffffffffffffffffffffffffffffffffffffffff1602179055508173ffffffffffffffffffffffffffffffffffffffff168173ffffffffffffffffffffffffffffffffffffffff167f8be0079c531659141344cd1fd0a4f28419497f9722a3daafe3b4186f6b6457e060405160405180910390a35050565b600080fd5b600073ffffffffffffffffffffffffffffffffffffffff82169050919050565b6000620001bc826200018f565b9050919050565b620001ce81620001af565b8114620001da57600080fd5b50565b600081519050620001ee81620001c3565b92915050565b6000602082840312156200020d576200020c6200018a565b5b60006200021d84828501620001dd565b91505092915050565b6200023181620001af565b82525050565b60006020820190506200024e600083018462000226565b92915050565b610f4380620002646000396000f3fe60806040526004361061004a5760003560e01c8063443a2a061461004f578063715018a61461006b5780638da5cb5b146100825780638e899718146100ad578063f2fde38b146100d6575b600080fd5b6100696004803603810190610064919061084f565b6100ff565b005b34801561007757600080fd5b50610080610372565b005b34801561008e57600080fd5b50610097610386565b6040516100a49190610911565b60405180910390f35b3480156100b957600080fd5b506100d460048036038101906100cf91906109c0565b6103af565b005b3480156100e257600080fd5b506100fd60048036038101906100f89190610a81565b6105b1565b005b6000805b838390508160ff16101561014e5783838260ff1681811061012757610126610aae565b5b90506020020135826101399190610b16565b9150808061014690610b57565b915050610103565b5080341015610192576040517f08c379a000000000000000000000000000000000000000000000000000000000815260040161018990610bdd565b60405180910390fd5b60005b858590508160ff1610156102a957600086868360ff168181106101bb576101ba610aae565b5b90506020020160208101906101d09190610c3b565b73ffffffffffffffffffffffffffffffffffffffff1685858460ff168181106101fc576101fb610aae565b5b9050602002013560405161020f90610c99565b60006040518083038185875af1925050503d806000811461024c576040519150601f19603f3d011682016040523d82523d6000602084013e610251565b606091505b5050905080610295576040517f08c379a000000000000000000000000000000000000000000000000000000000815260040161028c90610cfa565b60405180910390fd5b5080806102a190610b57565b915050610195565b508034111561036b5760003373ffffffffffffffffffffffffffffffffffffffff1682346102d79190610d1a565b6040516102e390610c99565b60006040518083038185875af1925050503d8060008114610320576040519150601f19603f3d011682016040523d82523d6000602084013e610325565b606091505b5050905080610369576040517f08c379a000000000000000000000000000000000000000000000000000000000815260040161036090610cfa565b60405180910390fd5b505b5050505050565b61037a610637565b61038460006106be565b565b60008060009054906101000a900473ffffffffffffffffffffffffffffffffffffffff16905090565b6000805b838390508160ff1610156103fe5783838260ff168181106103d7576103d6610aae565b5b90506020020135826103e99190610b16565b915080806103f690610b57565b9150506103b3565b508573ffffffffffffffffffffffffffffffffffffffff1663dd62ed3e33306040518363ffffffff1660e01b815260040161043a929190610d4e565b602060405180830381865afa158015610457573d6000803e3d6000fd5b505050506040513d601f19601f8201168201806040525081019061047b9190610da3565b8111156104bd576040517f08c379a00000000000000000000000000000000000000000000000000000000081526004016104b490610e42565b60405180910390fd5b60005b858590508160ff1610156105a8578673ffffffffffffffffffffffffffffffffffffffff166323b872dd3388888560ff1681811061050157610500610aae565b5b90506020020160208101906105169190610a81565b87878660ff1681811061052c5761052b610aae565b5b905060200201356040518463ffffffff1660e01b815260040161055193929190610e71565b6020604051808303816000875af1158015610570573d6000803e3d6000fd5b505050506040513d601f19601f820116820180604052508101906105949190610ee0565b5080806105a090610b57565b9150506104c0565b50505050505050565b6105b9610637565b600073ffffffffffffffffffffffffffffffffffffffff168173ffffffffffffffffffffffffffffffffffffffff160361062b5760006040517f1e4fbdf70000000000000000000000000000000000000000000000000000000081526004016106229190610911565b60405180910390fd5b610634816106be565b50565b61063f610782565b73ffffffffffffffffffffffffffffffffffffffff1661065d610386565b73ffffffffffffffffffffffffffffffffffffffff16146106bc57610680610782565b6040517f118cdaa70000000000000000000000000000000000000000000000000000000081526004016106b39190610911565b60405180910390fd5b565b60008060009054906101000a900473ffffffffffffffffffffffffffffffffffffffff169050816000806101000a81548173ffffffffffffffffffffffffffffffffffffffff021916908373ffffffffffffffffffffffffffffffffffffffff1602179055508173ffffffffffffffffffffffffffffffffffffffff168173ffffffffffffffffffffffffffffffffffffffff167f8be0079c531659141344cd1fd0a4f28419497f9722a3daafe3b4186f6b6457e060405160405180910390a35050565b600033905090565b600080fd5b600080fd5b600080fd5b600080fd5b600080fd5b60008083601f8401126107b9576107b8610794565b5b8235905067ffffffffffffffff8111156107d6576107d5610799565b5b6020830191508360208202830111156107f2576107f161079e565b5b9250929050565b60008083601f84011261080f5761080e610794565b5b8235905067ffffffffffffffff81111561082c5761082b610799565b5b6020830191508360208202830111156108485761084761079e565b5b9250929050565b600080600080604085870312156108695761086861078a565b5b600085013567ffffffffffffffff8111156108875761088661078f565b5b610893878288016107a3565b9450945050602085013567ffffffffffffffff8111156108b6576108b561078f565b5b6108c2878288016107f9565b925092505092959194509250565b600073ffffffffffffffffffffffffffffffffffffffff82169050919050565b60006108fb826108d0565b9050919050565b61090b816108f0565b82525050565b60006020820190506109266000830184610902565b92915050565b6000610937826108f0565b9050919050565b6109478161092c565b811461095257600080fd5b50565b6000813590506109648161093e565b92915050565b60008083601f8401126109805761097f610794565b5b8235905067ffffffffffffffff81111561099d5761099c610799565b5b6020830191508360208202830111156109b9576109b861079e565b5b9250929050565b6000806000806000606086880312156109dc576109db61078a565b5b60006109ea88828901610955565b955050602086013567ffffffffffffffff811115610a0b57610a0a61078f565b5b610a178882890161096a565b9450945050604086013567ffffffffffffffff811115610a3a57610a3961078f565b5b610a46888289016107f9565b92509250509295509295909350565b610a5e816108f0565b8114610a6957600080fd5b50565b600081359050610a7b81610a55565b92915050565b600060208284031215610a9757610a9661078a565b5b6000610aa584828501610a6c565b91505092915050565b7f4e487b7100000000000000000000000000000000000000000000000000000000600052603260045260246000fd5b6000819050919050565b7f4e487b7100000000000000000000000000000000000000000000000000000000600052601160045260246000fd5b6000610b2182610add565b9150610b2c83610add565b9250828201905080821115610b4457610b43610ae7565b5b92915050565b600060ff82169050919050565b6000610b6282610b4a565b915060ff8203610b7557610b74610ae7565b5b600182019050919050565b600082825260208201905092915050565b7f4e6f7420656e6f75676820526f73650000000000000000000000000000000000600082015250565b6000610bc7600f83610b80565b9150610bd282610b91565b602082019050919050565b60006020820190508181036000830152610bf681610bba565b9050919050565b6000610c08826108d0565b9050919050565b610c1881610bfd565b8114610c2357600080fd5b50565b600081359050610c3581610c0f565b92915050565b600060208284031215610c5157610c5061078a565b5b6000610c5f84828501610c26565b91505092915050565b600081905092915050565b50565b6000610c83600083610c68565b9150610c8e82610c73565b600082019050919050565b6000610ca482610c76565b9150819050919050565b7f5472616e73666572206661696c65642e00000000000000000000000000000000600082015250565b6000610ce4601083610b80565b9150610cef82610cae565b602082019050919050565b60006020820190508181036000830152610d1381610cd7565b9050919050565b6000610d2582610add565b9150610d3083610add565b9250828203905081811115610d4857610d47610ae7565b5b92915050565b6000604082019050610d636000830185610902565b610d706020830184610902565b9392505050565b610d8081610add565b8114610d8b57600080fd5b50565b600081519050610d9d81610d77565b92915050565b600060208284031215610db957610db861078a565b5b6000610dc784828501610d8e565b91505092915050565b7f496e73756666696369656e7420617070726f766564207370656e6420616d6f7560008201527f6e74000000000000000000000000000000000000000000000000000000000000602082015250565b6000610e2c602283610b80565b9150610e3782610dd0565b604082019050919050565b60006020820190508181036000830152610e5b81610e1f565b9050919050565b610e6b81610add565b82525050565b6000606082019050610e866000830186610902565b610e936020830185610902565b610ea06040830184610e62565b949350505050565b60008115159050919050565b610ebd81610ea8565b8114610ec857600080fd5b50565b600081519050610eda81610eb4565b92915050565b600060208284031215610ef657610ef561078a565b5b6000610f0484828501610ecb565b9150509291505056fea2646970667358221220420deda9dd4cf2841e6e9a77d61d67ea2b322b92b8c07b9299cfc9eb3bea172364736f6c63430008140033",
  "linkReferences": {},
  "deployedLinkReferences": {}
}