{
  "_format": "hh-sol-artifact-1",
  "contractName": "MultiSend",
  "sourceName": "contracts/MultiSend.sol",
  "abi": [
    {
      "inputs": [
        {
          "internalType": "address",
          "name": "initialOwner",
          "type": "address"
        },
        {
          "internalType": "uint256",
          "name": "initialFee",
          "type": "uint256"
        }
      ],
      "stateMutability": "nonpayable",
      "type": "constructor"
    },
    {
      "inputs": [
        {
          "internalType": "address",
          "name": "owner",
          "type": "address"
        }
      ],
      "name": "OwnableInvalidOwner",
      "type": "error"
    },
    {
      "inputs": [
        {
          "internalType": "address",
          "name": "account",
          "type": "address"
        }
      ],
      "name": "OwnableUnauthorizedAccount",
      "type": "error"
    },
    {
      "anonymous": false,
      "inputs": [
        {
          "indexed": true,
          "internalType": "address",
          "name": "previousOwner",
          "type": "address"
        },
        {
          "indexed": true,
          "internalType": "address",
          "name": "newOwner",
          "type": "address"
        }
      ],
      "name": "OwnershipTransferred",
      "type": "event"
    },
    {
      "inputs": [],
      "name": "fee",
      "outputs": [
        {
          "internalType": "uint256",
          "name": "",
          "type": "uint256"
        }
      ],
      "stateMutability": "view",
      "type": "function"
    },
    {
      "inputs": [
        {
          "internalType": "address payable[]",
          "name": "addresses",
          "type": "address[]"
        },
        {
          "internalType": "uint256[]",
          "name": "amounts",
          "type": "uint256[]"
        }
      ],
      "name": "multiSendRose",
      "outputs": [],
      "stateMutability": "payable",
      "type": "function"
    },
    {
      "inputs": [
        {
          "internalType": "contract IERC20",
          "name": "tokenAddr",
          "type": "address"
        },
        {
          "internalType": "address[]",
          "name": "addresses",
          "type": "address[]"
        },
        {
          "internalType": "uint256[]",
          "name": "amounts",
          "type": "uint256[]"
        }
      ],
      "name": "multiSendToken",
      "outputs": [],
      "stateMutability": "payable",
      "type": "function"
    },
    {
      "inputs": [],
      "name": "owner",
      "outputs": [
        {
          "internalType": "address",
          "name": "",
          "type": "address"
        }
      ],
      "stateMutability": "view",
      "type": "function"
    },
    {
      "inputs": [],
      "name": "renounceOwnership",
      "outputs": [],
      "stateMutability": "nonpayable",
      "type": "function"
    },
    {
      "inputs": [
        {
          "internalType": "uint256",
          "name": "_fee",
          "type": "uint256"
        }
      ],
      "name": "setFee",
      "outputs": [],
      "stateMutability": "nonpayable",
      "type": "function"
    },
    {
      "inputs": [
        {
          "internalType": "address",
          "name": "newOwner",
          "type": "address"
        }
      ],
      "name": "transferOwnership",
      "outputs": [],
      "stateMutability": "nonpayable",
      "type": "function"
    },
    {
      "inputs": [],
      "name": "withdraw",
      "outputs": [],
      "stateMutability": "nonpayable",
      "type": "function"
    }
  ],
  "bytecode": "0x60806040523480156200001157600080fd5b50604051620015f2380380620015f2833981810160405281019062000037919062000237565b81600073ffffffffffffffffffffffffffffffffffffffff168173ffffffffffffffffffffffffffffffffffffffff1603620000ad5760006040517f1e4fbdf7000000000000000000000000000000000000000000000000000000008152600401620000a491906200028f565b60405180910390fd5b620000be81620000ce60201b60201c565b50806001819055505050620002ac565b60008060009054906101000a900473ffffffffffffffffffffffffffffffffffffffff169050816000806101000a81548173ffffffffffffffffffffffffffffffffffffffff021916908373ffffffffffffffffffffffffffffffffffffffff1602179055508173ffffffffffffffffffffffffffffffffffffffff168173ffffffffffffffffffffffffffffffffffffffff167f8be0079c531659141344cd1fd0a4f28419497f9722a3daafe3b4186f6b6457e060405160405180910390a35050565b600080fd5b600073ffffffffffffffffffffffffffffffffffffffff82169050919050565b6000620001c48262000197565b9050919050565b620001d681620001b7565b8114620001e257600080fd5b50565b600081519050620001f681620001cb565b92915050565b6000819050919050565b6200021181620001fc565b81146200021d57600080fd5b50565b600081519050620002318162000206565b92915050565b6000806040838503121562000251576200025062000192565b5b60006200026185828601620001e5565b9250506020620002748582860162000220565b9150509250929050565b6200028981620001b7565b82525050565b6000602082019050620002a660008301846200027e565b92915050565b61133680620002bc6000396000f3fe60806040526004361061007b5760003560e01c80638da5cb5b1161004e5780638da5cb5b146100f35780638e8997181461011e578063ddca3f431461013a578063f2fde38b146101655761007b565b80633ccfd60b14610080578063443a2a061461009757806369fe0e2d146100b3578063715018a6146100dc575b600080fd5b34801561008c57600080fd5b5061009561018e565b005b6100b160048036038101906100ac9190610b0d565b610288565b005b3480156100bf57600080fd5b506100da60048036038101906100d59190610bc4565b61050e565b005b3480156100e857600080fd5b506100f1610520565b005b3480156100ff57600080fd5b50610108610534565b6040516101159190610c32565b60405180910390f35b61013860048036038101906101339190610ce1565b61055d565b005b34801561014657600080fd5b5061014f610869565b60405161015c9190610d85565b60405180910390f35b34801561017157600080fd5b5061018c60048036038101906101879190610dcc565b61086f565b005b6101966108f5565b600047116101d9576040517f08c379a00000000000000000000000000000000000000000000000000000000081526004016101d090610e56565b60405180910390fd5b60003373ffffffffffffffffffffffffffffffffffffffff16476040516101ff90610ea7565b60006040518083038185875af1925050503d806000811461023c576040519150601f19603f3d011682016040523d82523d6000602084013e610241565b606091505b5050905080610285576040517f08c379a000000000000000000000000000000000000000000000000000000000815260040161027c90610f08565b60405180910390fd5b50565b6000805b838390508160ff1610156102d75783838260ff168181106102b0576102af610f28565b5b90506020020135826102c29190610f86565b915080806102cf90610fc7565b91505061028c565b506000600154826102e89190610f86565b90508034101561032d576040517f08c379a00000000000000000000000000000000000000000000000000000000081526004016103249061103c565b60405180910390fd5b60005b868690508160ff16101561044457600087878360ff1681811061035657610355610f28565b5b905060200201602081019061036b919061109a565b73ffffffffffffffffffffffffffffffffffffffff1686868460ff1681811061039757610396610f28565b5b905060200201356040516103aa90610ea7565b60006040518083038185875af1925050503d80600081146103e7576040519150601f19603f3d011682016040523d82523d6000602084013e6103ec565b606091505b5050905080610430576040517f08c379a000000000000000000000000000000000000000000000000000000000815260040161042790610f08565b60405180910390fd5b50808061043c90610fc7565b915050610330565b50803411156105065760003373ffffffffffffffffffffffffffffffffffffffff16823461047291906110c7565b60405161047e90610ea7565b60006040518083038185875af1925050503d80600081146104bb576040519150601f19603f3d011682016040523d82523d6000602084013e6104c0565b606091505b5050905080610504576040517f08c379a00000000000000000000000000000000000000000000000000000000081526004016104fb90610f08565b60405180910390fd5b505b505050505050565b6105166108f5565b8060018190555050565b6105286108f5565b610532600061097c565b565b60008060009054906101000a900473ffffffffffffffffffffffffffffffffffffffff16905090565b6000805b838390508160ff1610156105ac5783838260ff1681811061058557610584610f28565b5b90506020020135826105979190610f86565b915080806105a490610fc7565b915050610561565b506001543410156105f2576040517f08c379a00000000000000000000000000000000000000000000000000000000081526004016105e990611147565b60405180910390fd5b8573ffffffffffffffffffffffffffffffffffffffff1663dd62ed3e33306040518363ffffffff1660e01b815260040161062d929190611167565b602060405180830381865afa15801561064a573d6000803e3d6000fd5b505050506040513d601f19601f8201168201806040525081019061066e91906111a5565b8111156106b0576040517f08c379a00000000000000000000000000000000000000000000000000000000081526004016106a790611244565b60405180910390fd5b60005b858590508160ff16101561079b578673ffffffffffffffffffffffffffffffffffffffff166323b872dd3388888560ff168181106106f4576106f3610f28565b5b90506020020160208101906107099190610dcc565b87878660ff1681811061071f5761071e610f28565b5b905060200201356040518463ffffffff1660e01b815260040161074493929190611264565b6020604051808303816000875af1158015610763573d6000803e3d6000fd5b505050506040513d601f19601f8201168201806040525081019061078791906112d3565b50808061079390610fc7565b9150506106b3565b506001543411156108615760003373ffffffffffffffffffffffffffffffffffffffff16600154346107cd91906110c7565b6040516107d990610ea7565b60006040518083038185875af1925050503d8060008114610816576040519150601f19603f3d011682016040523d82523d6000602084013e61081b565b606091505b505090508061085f576040517f08c379a000000000000000000000000000000000000000000000000000000000815260040161085690610f08565b60405180910390fd5b505b505050505050565b60015481565b6108776108f5565b600073ffffffffffffffffffffffffffffffffffffffff168173ffffffffffffffffffffffffffffffffffffffff16036108e95760006040517f1e4fbdf70000000000000000000000000000000000000000000000000000000081526004016108e09190610c32565b60405180910390fd5b6108f28161097c565b50565b6108fd610a40565b73ffffffffffffffffffffffffffffffffffffffff1661091b610534565b73ffffffffffffffffffffffffffffffffffffffff161461097a5761093e610a40565b6040517f118cdaa70000000000000000000000000000000000000000000000000000000081526004016109719190610c32565b60405180910390fd5b565b60008060009054906101000a900473ffffffffffffffffffffffffffffffffffffffff169050816000806101000a81548173ffffffffffffffffffffffffffffffffffffffff021916908373ffffffffffffffffffffffffffffffffffffffff1602179055508173ffffffffffffffffffffffffffffffffffffffff168173ffffffffffffffffffffffffffffffffffffffff167f8be0079c531659141344cd1fd0a4f28419497f9722a3daafe3b4186f6b6457e060405160405180910390a35050565b600033905090565b600080fd5b600080fd5b600080fd5b600080fd5b600080fd5b60008083601f840112610a7757610a76610a52565b5b8235905067ffffffffffffffff811115610a9457610a93610a57565b5b602083019150836020820283011115610ab057610aaf610a5c565b5b9250929050565b60008083601f840112610acd57610acc610a52565b5b8235905067ffffffffffffffff811115610aea57610ae9610a57565b5b602083019150836020820283011115610b0657610b05610a5c565b5b9250929050565b60008060008060408587031215610b2757610b26610a48565b5b600085013567ffffffffffffffff811115610b4557610b44610a4d565b5b610b5187828801610a61565b9450945050602085013567ffffffffffffffff811115610b7457610b73610a4d565b5b610b8087828801610ab7565b925092505092959194509250565b6000819050919050565b610ba181610b8e565b8114610bac57600080fd5b50565b600081359050610bbe81610b98565b92915050565b600060208284031215610bda57610bd9610a48565b5b6000610be884828501610baf565b91505092915050565b600073ffffffffffffffffffffffffffffffffffffffff82169050919050565b6000610c1c82610bf1565b9050919050565b610c2c81610c11565b82525050565b6000602082019050610c476000830184610c23565b92915050565b6000610c5882610c11565b9050919050565b610c6881610c4d565b8114610c7357600080fd5b50565b600081359050610c8581610c5f565b92915050565b60008083601f840112610ca157610ca0610a52565b5b8235905067ffffffffffffffff811115610cbe57610cbd610a57565b5b602083019150836020820283011115610cda57610cd9610a5c565b5b9250929050565b600080600080600060608688031215610cfd57610cfc610a48565b5b6000610d0b88828901610c76565b955050602086013567ffffffffffffffff811115610d2c57610d2b610a4d565b5b610d3888828901610c8b565b9450945050604086013567ffffffffffffffff811115610d5b57610d5a610a4d565b5b610d6788828901610ab7565b92509250509295509295909350565b610d7f81610b8e565b82525050565b6000602082019050610d9a6000830184610d76565b92915050565b610da981610c11565b8114610db457600080fd5b50565b600081359050610dc681610da0565b92915050565b600060208284031215610de257610de1610a48565b5b6000610df084828501610db7565b91505092915050565b600082825260208201905092915050565b7f4e6f2066756e647320746f207769746864726177000000000000000000000000600082015250565b6000610e40601483610df9565b9150610e4b82610e0a565b602082019050919050565b60006020820190508181036000830152610e6f81610e33565b9050919050565b600081905092915050565b50565b6000610e91600083610e76565b9150610e9c82610e81565b600082019050919050565b6000610eb282610e84565b9150819050919050565b7f5472616e73666572206661696c65642e00000000000000000000000000000000600082015250565b6000610ef2601083610df9565b9150610efd82610ebc565b602082019050919050565b60006020820190508181036000830152610f2181610ee5565b9050919050565b7f4e487b7100000000000000000000000000000000000000000000000000000000600052603260045260246000fd5b7f4e487b7100000000000000000000000000000000000000000000000000000000600052601160045260246000fd5b6000610f9182610b8e565b9150610f9c83610b8e565b9250828201905080821115610fb457610fb3610f57565b5b92915050565b600060ff82169050919050565b6000610fd282610fba565b915060ff8203610fe557610fe4610f57565b5b600182019050919050565b7f4e6f7420656e6f75676820526f73650000000000000000000000000000000000600082015250565b6000611026600f83610df9565b915061103182610ff0565b602082019050919050565b6000602082019050818103600083015261105581611019565b9050919050565b600061106782610bf1565b9050919050565b6110778161105c565b811461108257600080fd5b50565b6000813590506110948161106e565b92915050565b6000602082840312156110b0576110af610a48565b5b60006110be84828501611085565b91505092915050565b60006110d282610b8e565b91506110dd83610b8e565b92508282039050818111156110f5576110f4610f57565b5b92915050565b7f4e6f7420656e6f75676820526f736520746f2070617920666565000000000000600082015250565b6000611131601a83610df9565b915061113c826110fb565b602082019050919050565b6000602082019050818103600083015261116081611124565b9050919050565b600060408201905061117c6000830185610c23565b6111896020830184610c23565b9392505050565b60008151905061119f81610b98565b92915050565b6000602082840312156111bb576111ba610a48565b5b60006111c984828501611190565b91505092915050565b7f496e73756666696369656e7420617070726f766564207370656e6420616d6f7560008201527f6e74000000000000000000000000000000000000000000000000000000000000602082015250565b600061122e602283610df9565b9150611239826111d2565b604082019050919050565b6000602082019050818103600083015261125d81611221565b9050919050565b60006060820190506112796000830186610c23565b6112866020830185610c23565b6112936040830184610d76565b949350505050565b60008115159050919050565b6112b08161129b565b81146112bb57600080fd5b50565b6000815190506112cd816112a7565b92915050565b6000602082840312156112e9576112e8610a48565b5b60006112f7848285016112be565b9150509291505056fea26469706673582212207b9125935db46bd315ef4e674e5e9baa8e36180492ee0c66c198469514dbea1c64736f6c63430008140033",
  "linkReferences": {},
  "deployedLinkReferences": {}
}